{
  "contractName": "voting",
  "abi": [
    {
      "anonymous": false,
      "inputs": [
        {
          "indexed": false,
          "internalType": "string",
          "name": "msg",
          "type": "string"
        }
      ],
      "name": "Login",
      "type": "event"
    },
    {
      "anonymous": false,
      "inputs": [
        {
          "indexed": false,
          "internalType": "string",
          "name": "status",
          "type": "string"
        },
        {
          "indexed": false,
          "internalType": "address",
          "name": "_voting",
          "type": "address"
        }
      ],
      "name": "auctionStatus",
      "type": "event"
    },
    {
      "anonymous": false,
      "inputs": [
        {
          "indexed": false,
          "internalType": "address",
          "name": "",
          "type": "address"
        }
      ],
      "name": "candidateRegistered",
      "type": "event"
    },
    {
      "anonymous": false,
      "inputs": [
        {
          "indexed": false,
          "internalType": "address",
          "name": "_voting",
          "type": "address"
        },
        {
          "indexed": false,
          "internalType": "string",
          "name": "_citizen_name",
          "type": "string"
        }
      ],
      "name": "votingStarted",
      "type": "event"
    },
    {
      "constant": true,
      "inputs": [],
      "name": "citizen_name",
      "outputs": [
        {
          "internalType": "string",
          "name": "",
          "type": "string"
        }
      ],
      "payable": false,
      "stateMutability": "view",
      "type": "function"
    },
    {
      "constant": false,
      "inputs": [
        {
          "internalType": "string",
          "name": "_Name",
          "type": "string"
        },
        {
          "internalType": "uint256",
          "name": "_pin",
          "type": "uint256"
        }
      ],
      "name": "citizenRegister",
      "outputs": [],
      "payable": false,
      "stateMutability": "nonpayable",
      "type": "function"
    },
    {
      "constant": false,
      "inputs": [
        {
          "internalType": "string",
          "name": "_Name",
          "type": "string"
        },
        {
          "internalType": "uint256",
          "name": "_pin",
          "type": "uint256"
        }
      ],
      "name": "candidateRegister",
      "outputs": [],
      "payable": false,
      "stateMutability": "nonpayable",
      "type": "function"
    },
    {
      "constant": false,
      "inputs": [],
      "name": "startVote",
      "outputs": [],
      "payable": false,
      "stateMutability": "nonpayable",
      "type": "function"
    },
    {
      "constant": false,
      "inputs": [
        {
          "internalType": "string",
          "name": "_Campaign_name",
          "type": "string"
        }
      ],
      "name": "registerCampaign",
      "outputs": [],
      "payable": false,
      "stateMutability": "nonpayable",
      "type": "function"
    }
  ],
  "bytecode": "0x608060405234801561001057600080fd5b50610d15806100206000396000f3fe608060405234801561001057600080fd5b50600436106100575760003560e01c8063272a33dc1461005c5780633ea6001e146101215780634c0a6af0146101e6578063ba21007b146101f0578063df956529146102ab575b600080fd5b61011f6004803603604081101561007257600080fd5b810190808035906020019064010000000081111561008f57600080fd5b8201836020820111156100a157600080fd5b803590602001918460018302840111640100000000831117156100c357600080fd5b91908080601f016020809104026020016040519081016040528093929190818152602001838380828437600081840152601f19601f8201169050808301925050505050505091929192908035906020019092919050505061032e565b005b6101e46004803603604081101561013757600080fd5b810190808035906020019064010000000081111561015457600080fd5b82018360208201111561016657600080fd5b8035906020019184600183028401116401000000008311171561018857600080fd5b91908080601f016020809104026020016040519081016040528093929190818152602001838380828437600081840152601f19601f8201169050808301925050505050505091929192908035906020019092919050505061068f565b005b6101ee6109f0565b005b6102a96004803603602081101561020657600080fd5b810190808035906020019064010000000081111561022357600080fd5b82018360208201111561023557600080fd5b8035906020019184600183028401116401000000008311171561025757600080fd5b91908080601f016020809104026020016040519081016040528093929190818152602001838380828437600081840152601f19601f820116905080830192505050505050509192919290505050610b1f565b005b6102b3610b9d565b6040518080602001828103825283818151815260200191508051906020019080838360005b838110156102f35780820151818401526020810190506102d8565b50505050905090810190601f1680156103205780820380516001836020036101000a031916815260200191505b509250505060405180910390f35b3373ffffffffffffffffffffffffffffffffffffffff16600560003373ffffffffffffffffffffffffffffffffffffffff1673ffffffffffffffffffffffffffffffffffffffff16815260200190815260200160002060000160009054906101000a900473ffffffffffffffffffffffffffffffffffffffff1673ffffffffffffffffffffffffffffffffffffffff161415610432576040517f08c379a00000000000000000000000000000000000000000000000000000000081526004018080602001828103825260178152602001807f5573657220416c7265616479205265676973746572656400000000000000000081525060200191505060405180910390fd5b33600560003373ffffffffffffffffffffffffffffffffffffffff1673ffffffffffffffffffffffffffffffffffffffff16815260200190815260200160002060000160006101000a81548173ffffffffffffffffffffffffffffffffffffffff021916908373ffffffffffffffffffffffffffffffffffffffff16021790555081600560003373ffffffffffffffffffffffffffffffffffffffff1673ffffffffffffffffffffffffffffffffffffffff1681526020019081526020016000206001019080519060200190610509929190610c3b565b5080600560003373ffffffffffffffffffffffffffffffffffffffff1673ffffffffffffffffffffffffffffffffffffffff168152602001908152602001600020600201819055506001600560003373ffffffffffffffffffffffffffffffffffffffff1673ffffffffffffffffffffffffffffffffffffffff16815260200190815260200160002060030160026101000a81548160ff0219169083151502179055507f0b2d8924cbfc76a6ce4dcbb029636b55c02fdbd3cc5d8927d40119f538d552b060405180806020018281038252601c8152602001807f557365722052656769737465726564205375636365737366756c6c790000000081525060200191505060405180910390a160023390806001815401808255809150509060018203906000526020600020016000909192909190916101000a81548173ffffffffffffffffffffffffffffffffffffffff021916908373ffffffffffffffffffffffffffffffffffffffff1602179055505060008081548092919060010191905055505050565b3373ffffffffffffffffffffffffffffffffffffffff16600660003373ffffffffffffffffffffffffffffffffffffffff1673ffffffffffffffffffffffffffffffffffffffff16815260200190815260200160002060000160009054906101000a900473ffffffffffffffffffffffffffffffffffffffff1673ffffffffffffffffffffffffffffffffffffffff161415610793576040517f08c379a00000000000000000000000000000000000000000000000000000000081526004018080602001828103825260178152602001807f5573657220416c7265616479205265676973746572656400000000000000000081525060200191505060405180910390fd5b33600660003373ffffffffffffffffffffffffffffffffffffffff1673ffffffffffffffffffffffffffffffffffffffff16815260200190815260200160002060000160006101000a81548173ffffffffffffffffffffffffffffffffffffffff021916908373ffffffffffffffffffffffffffffffffffffffff16021790555081600660003373ffffffffffffffffffffffffffffffffffffffff1673ffffffffffffffffffffffffffffffffffffffff168152602001908152602001600020600101908051906020019061086a929190610c3b565b5080600660003373ffffffffffffffffffffffffffffffffffffffff1673ffffffffffffffffffffffffffffffffffffffff168152602001908152602001600020600301819055506001600660003373ffffffffffffffffffffffffffffffffffffffff1673ffffffffffffffffffffffffffffffffffffffff16815260200190815260200160002060040160026101000a81548160ff0219169083151502179055507f0b2d8924cbfc76a6ce4dcbb029636b55c02fdbd3cc5d8927d40119f538d552b060405180806020018281038252601c8152602001807f557365722052656769737465726564205375636365737366756c6c790000000081525060200191505060405180910390a160033390806001815401808255809150509060018203906000526020600020016000909192909190916101000a81548173ffffffffffffffffffffffffffffffffffffffff021916908373ffffffffffffffffffffffffffffffffffffffff1602179055505060008081548092919060010191905055505050565b6000600760006101000a81548160ff02191690836000811115610a0f57fe5b02179055506001600460006101000a81548160ff0219169083151502179055507fdb10f4e15126aadd47462f9cf82dd473095f86087d2b544b683c48fef257e8d3306001604051808373ffffffffffffffffffffffffffffffffffffffff1673ffffffffffffffffffffffffffffffffffffffff16815260200180602001828103825283818154600181600116156101000203166002900481526020019150805460018160011615610100020316600290048015610b0e5780601f10610ae357610100808354040283529160200191610b0e565b820191906000526020600020905b815481529060010190602001808311610af157829003601f168201915b5050935050505060405180910390a1565b6000600760006101000a81548160ff02191690836000811115610b3e57fe5b021790555080600660003373ffffffffffffffffffffffffffffffffffffffff1673ffffffffffffffffffffffffffffffffffffffff1681526020019081526020016000206002019080519060200190610b99929190610c3b565b5050565b60018054600181600116156101000203166002900480601f016020809104026020016040519081016040528092919081815260200182805460018160011615610100020316600290048015610c335780601f10610c0857610100808354040283529160200191610c33565b820191906000526020600020905b815481529060010190602001808311610c1657829003601f168201915b505050505081565b828054600181600116156101000203166002900490600052602060002090601f016020900481019282601f10610c7c57805160ff1916838001178555610caa565b82800160010185558215610caa579182015b82811115610ca9578251825591602001919060010190610c8e565b5b509050610cb79190610cbb565b5090565b610cdd91905b80821115610cd9576000816000905550600101610cc1565b5090565b9056fea265627a7a723158205f912a08ecec790734d4db0b1579a976976e101c79129eff6c017f689897527d64736f6c63430005100032",
  "source": "pragma solidity ^0.5.0;\r\n\r\ncontract voting{\r\n    \r\n    uint counter;\r\n    \r\n    \r\n    struct citizen{\r\n        address User_ID;\r\n        string Name;\r\n        uint pin;\r\n        bool log;\r\n        bool verified;\r\n        bool account_status;\r\n    }\r\n    \r\n    \r\n    struct candidate{\r\n        address User_ID;\r\n        string Name;\r\n        string Campaign_name;\r\n        uint pin;\r\n        bool log;\r\n        bool verified;\r\n        bool account_status;\r\n    }\r\n    \r\n    \r\n    string public citizen_name;\r\n    \r\n     address[] account_citizen;\r\n      address[] account_candidate;\r\n       bool isActive;\r\n\r\n    \r\n     mapping(address=>citizen) Citizen; \r\n      mapping(address=>candidate) Candidate; \r\n     \r\n     event Login(string msg);\r\n     \r\n     event votingStarted(address _voting, string _citizen_name);\r\n     \r\n     event candidateRegistered(address);\r\n     \r\n     event auctionStatus(string status, address _voting);\r\n     \r\n     enum CandidateState{Registered}\r\n    \r\n    CandidateState state;\r\n    \r\n    \r\n    \r\n      \r\n    \r\n  \r\n    \r\n    function citizenRegister(string memory _Name, uint _pin)public{\r\n        require(Citizen[msg.sender].User_ID != msg.sender,\"User Already Registered\");\r\n        Citizen[msg.sender].User_ID=msg.sender;\r\n        Citizen[msg.sender].Name=_Name;\r\n        Citizen[msg.sender].pin=_pin;\r\n        Citizen[msg.sender].account_status=true;\r\n        emit Login(\"User Registered Successfully\");\r\n        account_citizen.push(msg.sender);\r\n        counter++;\r\n        \r\n    }\r\n    \r\n    \r\n     function candidateRegister(string memory _Name, uint _pin)public{\r\n        require(Candidate[msg.sender].User_ID != msg.sender,\"User Already Registered\");\r\n        Candidate[msg.sender].User_ID=msg.sender;\r\n        Candidate[msg.sender].Name=_Name;\r\n        Candidate[msg.sender].pin=_pin;\r\n        Candidate[msg.sender].account_status=true;\r\n        \r\n        emit Login(\"User Registered Successfully\");\r\n        account_candidate.push(msg.sender);\r\n        counter++;\r\n        \r\n    }\r\n    \r\n    function startVote() public{\r\n         \r\n         state = CandidateState.Registered;\r\n        isActive=true;\r\n        \r\n        emit votingStarted(address(this),citizen_name);\r\n    }\r\n    \r\n    function registerCampaign(string memory _Campaign_name) public{\r\n        \r\n         state = CandidateState.Registered;\r\n         Candidate[msg.sender].Campaign_name=_Campaign_name;\r\n    }\r\n    \r\n   \r\n    \r\n\r\n}",
  "sourcePath": "C:/Users/Himangi/Desktop/voting/contracts/voting.sol",
  "compiler": {
    "name": "solc",
    "version": "0.5.16+commit.9c3226ce.Emscripten.clang"
  },
  "schemaVersion": "3.3.4",
  "updatedAt": "2021-04-10T07:00:18.158Z",
  "networkType": "ethereum",
  "devdoc": {
    "methods": {}
  },
  "userdoc": {
    "methods": {}
  }
}